:100000000C943A000C94E2050C94E2050C94E20581
:100010000C94E2050C94E2050C94E2050C94E205C4
:100020000C94E2050C94E2050C94E2050C94BF03D9
:100030000C94E2050C94E2050C9415040C94E20572
:100040000C94E2050C94E2050C94E2050C94E20594
:100050000C94A2050C94E2050C94E2050C94E205C4
:100060000C94E2050C94E2050100011280011201DA
:1000700014000BC811241FBECFEFD8E0DEBFCDBFE8
:10008000E8E6F0E040E017C0B591A59135912591E3
:10009000059107FD0CC095918591EF01F92FE82F8F
:1000A00005900D92A217B307D9F7FE0104C01D9267
:1000B000A217B307E1F7E437F40731F70E9403030F
:0800C0000C946200F894FFCFDC
:0F00C800436C6F636B2070726F6772616D0A001B
:0300D7002564009D
:1000DA002F923F924F926F927F928F929F92AF92FE
:1000EA00BF92CF92DF92EF92FF920F931F93CF931B
:1000FA00DF93CDB7DEB762970FB6F894DEBF0FBEB7
:10010A00CDBF6C013A01862E7901FC011086178257
:10011A00848181FFE7C19E012F5F3F4F3D872C8776
:10012A00C901A0E8888B998BAA8B9FE3992EF301CA
:10013A00849187FC8081882309F4D0C1482D9301DA
:10014A002F5F3F4F4F4F853219F03901842E0AC075
:10015A00F901849147FD808192E0690E711C811C2E
:10016A00853229F4B60190E00E945A04E0CFB12CFE
:10017A0000E010E01032A0F48B3269F030F48032E3
:10018A0059F0833269F410612CC08D3239F0803312
:10019A0039F4116026C01260146023C0186021C0AF
:1001AA0017FD29C090ED980F9A3078F416FF06C013
:1001BA00AAE0BA9E900D1124B92E13C0EAE00E9F50
:1001CA00900D1124092F10620CC08E3221F416FDF5
:1001DA0085C1106406C08C3611F4106802C08836D6
:1001EA0051F4F301849187FC8081FFEF6F1A7F0A33
:1001FA008F0A8111BFCF982F9F7D9554933028F491
:10020A0024E0E20EF11C99820FC0833631F0833765
:10021A0091F0833509F063C027C0F7018081898393
:10022A0097012E5F3F4F7901288839884A88AA2486
:10023A00A394B12C17C0A7014D5F5F4F5F874E870C
:10024A00F70120803180428016FF03C04B2D50E019
:10025A0002C04FEF5FEF842DB1010E945B055C0184
:10026A00EE84FF841F7718C097012D5F3F4F3F87A9
:10027A002E87F70120803180428016FF03C04B2D64
:10028A0050E002C04FEF5FEF842DB1010E945B0581
:10029A005C011068EE84FF8413FD1DC0802F90E07E
:1002AA00A816B906C0F4B60180E290E00E945A048A
:1002BA000150F4CFF101849147FC8081FFEF2F1A9E
:1002CA003F0A4F0AB60190E00E945A0401110150F8
:1002DA0021E0A21AB108A114B10461F7F5C084366D
:1002EA0011F0893671F5F70117FF08C06081718135
:1002FA008281938197012C5F3F4F09C06081718190
:10030A00072E000C880B990B97012E5F3F4F79013E
:10031A001F76312E97FF0AC090958095709561954A
:10032A007F4F8F4F9F4F312F3068332E2AE030E0B6
:10033A00AE014F5F5F4F0E946103482E4C85441AFD
:10034A004AC0853729F41F7EA12E2AE030E025C055
:10035A00512F597FA52E8F36C1F018F4883579F0C0
:10036A00BDC0803719F0883721F0B8C0852F806169
:10037A00A82EA4FE0DC09A2D9460A92E09C014FFC0
:10038A000AC0A52FA660AA2E06C028E030E005C044
:10039A0020E130E002C020E132E0F701A7FE08C008
:1003AA006081718182819381A7014C5F5F4F07C091
:1003BA006081718180E090E0A7014E5F5F4F7A0112
:1003CA00AE014F5F5F4F0E946103482E5C85451A5C
:1003DA008A2D8F77382E36FE0DC0932D9E7FA92E3B
:1003EA004B1458F434FE0BC032FC09C0A32DAE7E68
:1003FA00AA2E05C0142DA32C03C0142D01C01B2D39
:10040A00A4FE0EC0FE01E40DF11D8081803321F4AB
:10041A00EA2DE97EAE2E08C0A2FE05C01E5F04C00A
:10042A008A2D867809F01F5FA3FC11C0A0FE06C0C2
:10043A00101788F4040DB02EB11A0EC0101760F40C
:10044A00B60180E290E00E945A041F5FF7CF1017AE
:10045A0018F4011B02C0B42C00E0A4FE10C0B601BF
:10046A0080E390E00E945A04A2FE17C0A1FC03C0D8
:10047A0088E790E002C088E590E0B6010CC08A2DBA
:10048A00867859F0A1FE02C08BE201C080E2A7FC87
:10049A008DE2B60190E00E945A044B1438F4B6017A
:1004AA0080E390E00E945A04BA94F7CF4A94E1E0BC
:1004BA00F0E0EC0FFD1FE40DF11D8081B60190E024
:1004CA000E945A044110F2CF002309F430CEB6013B
:1004DA0080E290E00E945A040150F6CFF60187812B
:1004EA00908502C08FEF9FEF62960FB6F894DEBF39
:1004FA000FBECDBFDF91CF911F910F91FF90EF906B
:10050A00DF90CF90BF90AF909F908F907F906F9029
:08051A004F903F902F900895CF
:100522008F929F92AF92BF92CF92DF92EF92FF9201
:100532001F936B017C0120E13EE040E050E00E940D
:10054200E70449015A01309303012093020120E19B
:100552003EE0289DC001299D900D389D900D1124EB
:10056200092E000CAA0BBB0BA7019601281B390B05
:100572004A0B5B0BCA01B9012CE330E040E050E0CA
:100582000E94E704309305012093040114EC120346
:10059200B001139F700D112420EF31EF289DC0018F
:1005A200299D900D389D900D1124860F971FC80E1E
:1005B200D91ED0920101C0920001C4010E9496048A
:1005C2008AE30E94B10580910401909105010E9485
:1005D20096048AE30E94B105809100019091010185
:1005E2000E9496048AE00E94B10560E070E0CB01AF
:1005F2001F91FF90EF90DF90CF90BF90AF909F90B0
:040602008F90089538
:10060600CF93DF93CDB7DEB72F970FB6F894DEBF43
:100616000FBECDBF84B1806284B978940E94D6059E
:1006260080E190E00E94CB0528EC30E040E08FE0CE
:10063600F901DE011196742F0E94BE05CE010196C6
:100646000E9440050E9491050E94250580910A019D
:1006560090910B01A0910C01B0910D014091060102
:10066600509107016091080170910901841B950B57
:10067600A60BB70B893E9340A105B10538F38091CF
:100686001201882351F060910E0170910F01809143
:100696001001909111010E94910280910A0190919E
:1006A6000B01A0910C01B0910D018093060190936E
:0C06B6000701A0930801B0930901C8CF10
:1006C200FA01AA27283051F1203181F1E8946F9381
:1006D2006E7F6E5F7F4F8F4F9F4FAF4FB1E03ED027
:1006E200B4E03CD0670F781F891F9A1FA11D680FC5
:1006F200791F8A1F911DA11D6A0F711D811D911DF8
:10070200A11D20D009F468943F912AE0269F11246C
:100712003019305D3193DEF6CF010895462F4770D0
:10072200405D4193B3E00FD0C9F7F6CF462F4F702B
:10073200405D4A3318F0495D31FD4052419302D089
:10074200A9F7EACFB4E0A69597958795779567952F
:10075200BA95C9F700976105710508959B01AC012F
:100762000A2E06945795479537952795BA95C9F756
:0C077200620F731F841F951FA01D0895C7
:10077E001F920F920FB60F9211242F933F934F9308
:10078E005F936F937F938F939F93AF93BF93EF93EB
:10079E00FF930E94DD0580911201882351F1809113
:1007AE000E0190910F01A0911001B09111018038AE
:1007BE0021E5920721E0A207B10549F410920E013E
:1007CE0010920F01109210011092110112C0803878
:1007DE0021E5920721E0A207B10558F40196A11D6B
:1007EE00B11D80930E0190930F01A0931001B09351
:1007FE0011011092850010928400FF91EF91BF912C
:10080E00AF919F918F917F916F915F914F913F919A
:0C081E002F910F900FBE0F901F901895A7
:10082A001F920F920FB60F9211242F938F939F93BB
:10083A00AF93BF9380910A0190910B01A0910C0193
:10084A00B0910D018F3F2FEF9207A105B10589F4F1
:10085A0010920A0110920B0110920C0110920D01D4
:10086A0010920601109207011092080110920901D4
:10087A0011C08F3F2FEF9207A105B10558F40196D9
:10088A00A11DB11D80930A0190930B01A0930C0145
:10089A00B0930D0116BCBF91AF919F918F912F918B
:0A08AA000F900FBE0F901F901895DD
:1008B4000F931F93CF93DF93FB01248121FD03C08A
:1008C4008FEF9FEF2CC022FF16C0478150852581F2
:1008D40036814217530744F4A081B1819D012F5FF3
:1008E4003F4F318320838C93278130852F5F3F4F87
:1008F4003087278314C08B01EC01FB010184F2854E
:10090400E02D0995892BE1F6D80117968D919C91DC
:100914001897019618969C938E931797CE01DF91A2
:08092400CF911F910F9108957E
:10092C000F931F93CF93DF93CDB7DEB7E2970FB63C
:10093C00F894DEBF0FBECDBF9F938F9387ED90E0F1
:10094C00A0E0AF939F938F938E010F5F1F4F1F9368
:10095C000F930E94C404C8010E9440050FB6F8947E
:10096C00DEBF0FBECDBFE2960FB6F894DEBF0FBE52
:0C097C00CDBFDF91CF911F910F91089526
:10098800AFE0B0E0EAECF4E00C9417050E891F899B
:1009980086E08D831A8309838FEF9FE79F838E8379
:1009A8009E01255E3F4F488D598D6A8DCE01019677
:1009B8000E946D00E885F985E00FF11F10822F96DF
:0609C800E4E00C9484053C
:1009CE00A1E21A2EAA1BBB1BFD010DC0AA1FBB1F45
:1009DE00EE1FFF1FA217B307E407F50720F0A21BB7
:1009EE00B30BE40BF50B661F771F881F991F1A9424
:1009FE0069F760957095809590959B01AC01BD014E
:040A0E00CF01089577
:100A12002F923F924F925F926F927F928F929F920C
:100A2200AF92BF92CF92DF92EF92FF920F931F93FA
:100A3200CF93DF93CDB7DEB7CA1BDB0B0FB6F894AB
:080A4200DEBF0FBECDBF099419
:100A4A0010928000E1E8F0E08081846080838081F8
:100A5A008D7F808380818E7F8083109285001092A3
:100A6A00840083E294EF909389008093880082E067
:060A7A0080936F00089557
:100A80000F931F93CF93DF938C01C0E0D0E0F80168
:100A9000EC0FFD1F80810E94B1052196F801EC0F3B
:100AA000FD1F80818111F3CF0E94B105DF91CF91AD
:060AB0001F910F91089553
:100AB600CF92DF92EF926B01E82EA82FCB01411562
:100AC600510531F48C199D09EF90DF90CF90089570
:100AD600FC012491A7FD20812223A1F30196A11DEB
:060AE60041505109ECCF64
:100AEC002A88398848885F846E847D848C849B84B2
:100AFC00AA84B984C884DF80EE80FD800C811B81C0
:100B0C00AA81B981CE0FD11D0FB6F894DEBF0FBEEE
:060B1C00CDBFED010895BC
:100B220014BC85B58B7F85BD85B5826085BD85B5D5
:100B3200816085BD16BC89EF87BD82E080936E001F
:020B4200089514
:100B44001F920F920FB60F9211248F9381E080931E
:0E0B540013018F910F900FBE0F901F901895F8
:100B6200109213019091C00095FFFCCF9091130158
:0A0B7200913011F08093C600089541
:100B7C00992777FD05C005900D920197E1F708952F
:0A0B8C0001900D920197E1F7089522
:100B96009093C5008093C40088E18093C1008EE0E5
:060BA6008093C2000895D7
:0E0BAC0083E980937A0080E480937C000895B2
:0A0BBA0095B180E2892785B90895FE
:040BC4000C9400008D
:010BC800012B
:010BC900012A
:00000001FF
